{
  "_format": "hh-sol-artifact-1",
  "contractName": "Hero",
  "sourceName": "contracts/Hero.sol",
  "abi": [
    {
      "inputs": [],
      "stateMutability": "nonpayable",
      "type": "constructor"
    },
    {
      "anonymous": false,
      "inputs": [
        {
          "indexed": true,
          "internalType": "address",
          "name": "owner",
          "type": "address"
        },
        {
          "indexed": true,
          "internalType": "address",
          "name": "approved",
          "type": "address"
        },
        {
          "indexed": true,
          "internalType": "uint256",
          "name": "tokenId",
          "type": "uint256"
        }
      ],
      "name": "Approval",
      "type": "event"
    },
    {
      "anonymous": false,
      "inputs": [
        {
          "indexed": true,
          "internalType": "address",
          "name": "owner",
          "type": "address"
        },
        {
          "indexed": true,
          "internalType": "address",
          "name": "operator",
          "type": "address"
        },
        {
          "indexed": false,
          "internalType": "bool",
          "name": "approved",
          "type": "bool"
        }
      ],
      "name": "ApprovalForAll",
      "type": "event"
    },
    {
      "anonymous": false,
      "inputs": [
        {
          "indexed": false,
          "internalType": "uint8",
          "name": "version",
          "type": "uint8"
        }
      ],
      "name": "Initialized",
      "type": "event"
    },
    {
      "anonymous": false,
      "inputs": [
        {
          "indexed": true,
          "internalType": "address",
          "name": "previousOwner",
          "type": "address"
        },
        {
          "indexed": true,
          "internalType": "address",
          "name": "newOwner",
          "type": "address"
        }
      ],
      "name": "OwnershipTransferred",
      "type": "event"
    },
    {
      "anonymous": false,
      "inputs": [
        {
          "indexed": true,
          "internalType": "address",
          "name": "from",
          "type": "address"
        },
        {
          "indexed": true,
          "internalType": "address",
          "name": "to",
          "type": "address"
        },
        {
          "indexed": true,
          "internalType": "uint256",
          "name": "tokenId",
          "type": "uint256"
        }
      ],
      "name": "Transfer",
      "type": "event"
    },
    {
      "inputs": [
        {
          "internalType": "address",
          "name": "to",
          "type": "address"
        },
        {
          "internalType": "uint256",
          "name": "tokenId",
          "type": "uint256"
        }
      ],
      "name": "approve",
      "outputs": [],
      "stateMutability": "nonpayable",
      "type": "function"
    },
    {
      "inputs": [
        {
          "internalType": "address",
          "name": "owner",
          "type": "address"
        }
      ],
      "name": "balanceOf",
      "outputs": [
        {
          "internalType": "uint256",
          "name": "",
          "type": "uint256"
        }
      ],
      "stateMutability": "view",
      "type": "function"
    },
    {
      "inputs": [
        {
          "internalType": "uint256",
          "name": "tokenId",
          "type": "uint256"
        }
      ],
      "name": "getApproved",
      "outputs": [
        {
          "internalType": "address",
          "name": "",
          "type": "address"
        }
      ],
      "stateMutability": "view",
      "type": "function"
    },
    {
      "inputs": [],
      "name": "getCurrentTokenCount",
      "outputs": [
        {
          "internalType": "uint256",
          "name": "",
          "type": "uint256"
        }
      ],
      "stateMutability": "view",
      "type": "function"
    },
    {
      "inputs": [
        {
          "internalType": "address",
          "name": "defender",
          "type": "address"
        }
      ],
      "name": "initialize",
      "outputs": [],
      "stateMutability": "nonpayable",
      "type": "function"
    },
    {
      "inputs": [
        {
          "internalType": "address",
          "name": "owner",
          "type": "address"
        },
        {
          "internalType": "address",
          "name": "operator",
          "type": "address"
        }
      ],
      "name": "isApprovedForAll",
      "outputs": [
        {
          "internalType": "bool",
          "name": "",
          "type": "bool"
        }
      ],
      "stateMutability": "view",
      "type": "function"
    },
    {
      "inputs": [],
      "name": "name",
      "outputs": [
        {
          "internalType": "string",
          "name": "",
          "type": "string"
        }
      ],
      "stateMutability": "view",
      "type": "function"
    },
    {
      "inputs": [],
      "name": "owner",
      "outputs": [
        {
          "internalType": "address",
          "name": "",
          "type": "address"
        }
      ],
      "stateMutability": "view",
      "type": "function"
    },
    {
      "inputs": [
        {
          "internalType": "uint256",
          "name": "tokenId",
          "type": "uint256"
        }
      ],
      "name": "ownerOf",
      "outputs": [
        {
          "internalType": "address",
          "name": "",
          "type": "address"
        }
      ],
      "stateMutability": "view",
      "type": "function"
    },
    {
      "inputs": [],
      "name": "renounceOwnership",
      "outputs": [],
      "stateMutability": "nonpayable",
      "type": "function"
    },
    {
      "inputs": [
        {
          "internalType": "address",
          "name": "to",
          "type": "address"
        },
        {
          "internalType": "bytes32",
          "name": "hash",
          "type": "bytes32"
        },
        {
          "internalType": "bytes",
          "name": "signature",
          "type": "bytes"
        }
      ],
      "name": "safeMint",
      "outputs": [],
      "stateMutability": "nonpayable",
      "type": "function"
    },
    {
      "inputs": [
        {
          "internalType": "address",
          "name": "from",
          "type": "address"
        },
        {
          "internalType": "address",
          "name": "to",
          "type": "address"
        },
        {
          "internalType": "uint256",
          "name": "tokenId",
          "type": "uint256"
        }
      ],
      "name": "safeTransferFrom",
      "outputs": [],
      "stateMutability": "nonpayable",
      "type": "function"
    },
    {
      "inputs": [
        {
          "internalType": "address",
          "name": "from",
          "type": "address"
        },
        {
          "internalType": "address",
          "name": "to",
          "type": "address"
        },
        {
          "internalType": "uint256",
          "name": "tokenId",
          "type": "uint256"
        },
        {
          "internalType": "bytes",
          "name": "_data",
          "type": "bytes"
        }
      ],
      "name": "safeTransferFrom",
      "outputs": [],
      "stateMutability": "nonpayable",
      "type": "function"
    },
    {
      "inputs": [
        {
          "internalType": "address",
          "name": "operator",
          "type": "address"
        },
        {
          "internalType": "bool",
          "name": "approved",
          "type": "bool"
        }
      ],
      "name": "setApprovalForAll",
      "outputs": [],
      "stateMutability": "nonpayable",
      "type": "function"
    },
    {
      "inputs": [
        {
          "internalType": "bytes4",
          "name": "interfaceId",
          "type": "bytes4"
        }
      ],
      "name": "supportsInterface",
      "outputs": [
        {
          "internalType": "bool",
          "name": "",
          "type": "bool"
        }
      ],
      "stateMutability": "view",
      "type": "function"
    },
    {
      "inputs": [],
      "name": "symbol",
      "outputs": [
        {
          "internalType": "string",
          "name": "",
          "type": "string"
        }
      ],
      "stateMutability": "view",
      "type": "function"
    },
    {
      "inputs": [
        {
          "internalType": "uint256",
          "name": "index",
          "type": "uint256"
        }
      ],
      "name": "tokenByIndex",
      "outputs": [
        {
          "internalType": "uint256",
          "name": "",
          "type": "uint256"
        }
      ],
      "stateMutability": "view",
      "type": "function"
    },
    {
      "inputs": [
        {
          "internalType": "address",
          "name": "owner",
          "type": "address"
        },
        {
          "internalType": "uint256",
          "name": "index",
          "type": "uint256"
        }
      ],
      "name": "tokenOfOwnerByIndex",
      "outputs": [
        {
          "internalType": "uint256",
          "name": "",
          "type": "uint256"
        }
      ],
      "stateMutability": "view",
      "type": "function"
    },
    {
      "inputs": [
        {
          "internalType": "uint256",
          "name": "tokenId",
          "type": "uint256"
        }
      ],
      "name": "tokenURI",
      "outputs": [
        {
          "internalType": "string",
          "name": "",
          "type": "string"
        }
      ],
      "stateMutability": "view",
      "type": "function"
    },
    {
      "inputs": [],
      "name": "totalSupply",
      "outputs": [
        {
          "internalType": "uint256",
          "name": "",
          "type": "uint256"
        }
      ],
      "stateMutability": "view",
      "type": "function"
    },
    {
      "inputs": [
        {
          "internalType": "address",
          "name": "from",
          "type": "address"
        },
        {
          "internalType": "address",
          "name": "to",
          "type": "address"
        },
        {
          "internalType": "uint256",
          "name": "tokenId",
          "type": "uint256"
        }
      ],
      "name": "transferFrom",
      "outputs": [],
      "stateMutability": "nonpayable",
      "type": "function"
    },
    {
      "inputs": [
        {
          "internalType": "address",
          "name": "newOwner",
          "type": "address"
        }
      ],
      "name": "transferOwnership",
      "outputs": [],
      "stateMutability": "nonpayable",
      "type": "function"
    }
  ],
  "bytecode": "0x60806040523480156200001157600080fd5b506000620000266001620000ae60201b60201c565b905080156200004b576001600060016101000a81548160ff0219169083151502179055505b8015620000a75760008060016101000a81548160ff0219169083151502179055507f7f26b83ff96e1f2b6a682f133852f6798a09c465da95921460cefb384740249860016040516200009e91906200020f565b60405180910390a15b50620002cf565b60008060019054906101000a900460ff1615620001385760018260ff16148015620000ec5750620000ea30620001b460201b620011891760201c565b155b6200012e576040517f08c379a000000000000000000000000000000000000000000000000000000000815260040162000125906200022c565b60405180910390fd5b60009050620001af565b8160ff1660008054906101000a900460ff1660ff161062000190576040517f08c379a000000000000000000000000000000000000000000000000000000000815260040162000187906200022c565b60405180910390fd5b816000806101000a81548160ff021916908360ff160217905550600190505b919050565b6000808273ffffffffffffffffffffffffffffffffffffffff163b119050919050565b620001e2816200026c565b82525050565b6000620001f7602e836200024e565b9150620002048262000280565b604082019050919050565b6000602082019050620002266000830184620001d7565b92915050565b600060208201905081810360008301526200024781620001e8565b9050919050565b600082825260208201905092915050565b600060ff82169050919050565b600062000279826200025f565b9050919050565b7f496e697469616c697a61626c653a20636f6e747261637420697320616c72656160008201527f647920696e697469616c697a6564000000000000000000000000000000000000602082015250565b61477980620002df6000396000f3fe608060405234801561001057600080fd5b50600436106101425760003560e01c806370a08231116100b8578063b88d4fde1161007c578063b88d4fde14610375578063c4d66de814610391578063c6cf868a146103ad578063c87b56dd146103cb578063e985e9c5146103fb578063f2fde38b1461042b57610142565b806370a08231146102e3578063715018a6146103135780638da5cb5b1461031d57806395d89b411461033b578063a22cb4651461035957610142565b806323b872dd1161010a57806323b872dd146101ff5780632f745c591461021b57806342842e0e1461024b5780634f6ccce71461026757806350129dc9146102975780636352211e146102b357610142565b806301ffc9a71461014757806306fdde0314610177578063081812fc14610195578063095ea7b3146101c557806318160ddd146101e1575b600080fd5b610161600480360381019061015c91906130f2565b610447565b60405161016e9190613760565b60405180910390f35b61017f610459565b60405161018c91906137db565b60405180910390f35b6101af60048036038101906101aa9190613144565b6104eb565b6040516101bc91906136c2565b60405180910390f35b6101df60048036038101906101da91906130b6565b610570565b005b6101e9610688565b6040516101f69190613b7d565b60405180910390f35b61021960048036038101906102149190612f49565b610695565b005b610235600480360381019061023091906130b6565b6106f5565b6040516102429190613b7d565b60405180910390f35b61026560048036038101906102609190612f49565b61079a565b005b610281600480360381019061027c9190613144565b6107ba565b60405161028e9190613b7d565b60405180910390f35b6102b160048036038101906102ac919061304f565b610851565b005b6102cd60048036038101906102c89190613144565b610a5b565b6040516102da91906136c2565b60405180910390f35b6102fd60048036038101906102f89190612ee4565b610b0d565b60405161030a9190613b7d565b60405180910390f35b61031b610bc5565b005b610325610c4d565b60405161033291906136c2565b60405180910390f35b610343610c77565b60405161035091906137db565b60405180910390f35b610373600480360381019061036e9190613013565b610d09565b005b61038f600480360381019061038a9190612f98565b610d1f565b005b6103ab60048036038101906103a69190612ee4565b610d81565b005b6103b5610f44565b6040516103c29190613b7d565b60405180910390f35b6103e560048036038101906103e09190613144565b610f56565b6040516103f291906137db565b60405180910390f35b61041560048036038101906104109190612f0d565b610ffd565b6040516104229190613760565b60405180910390f35b61044560048036038101906104409190612ee4565b611091565b005b6000610452826111ac565b9050919050565b60606065805461046890613dcb565b80601f016020809104026020016040519081016040528092919081815260200182805461049490613dcb565b80156104e15780601f106104b6576101008083540402835291602001916104e1565b820191906000526020600020905b8154815290600101906020018083116104c457829003601f168201915b5050505050905090565b60006104f682611226565b610535576040517f08c379a000000000000000000000000000000000000000000000000000000000815260040161052c90613a7d565b60405180910390fd5b6069600083815260200190815260200160002060009054906101000a900473ffffffffffffffffffffffffffffffffffffffff169050919050565b600061057b82610a5b565b90508073ffffffffffffffffffffffffffffffffffffffff168373ffffffffffffffffffffffffffffffffffffffff1614156105ec576040517f08c379a00000000000000000000000000000000000000000000000000000000081526004016105e390613add565b60405180910390fd5b8073ffffffffffffffffffffffffffffffffffffffff1661060b611292565b73ffffffffffffffffffffffffffffffffffffffff16148061063a575061063981610634611292565b610ffd565b5b610679576040517f08c379a0000000000000000000000000000000000000000000000000000000008152600401610670906139bd565b60405180910390fd5b610683838361129a565b505050565b6000609980549050905090565b6106a66106a0611292565b82611353565b6106e5576040517f08c379a00000000000000000000000000000000000000000000000000000000081526004016106dc90613afd565b60405180910390fd5b6106f0838383611431565b505050565b600061070083610b0d565b8210610741576040517f08c379a00000000000000000000000000000000000000000000000000000000081526004016107389061383d565b60405180910390fd5b609760008473ffffffffffffffffffffffffffffffffffffffff1673ffffffffffffffffffffffffffffffffffffffff168152602001908152602001600020600083815260200190815260200160002054905092915050565b6107b583838360405180602001604052806000815250610d1f565b505050565b60006107c4610688565b8210610805576040517f08c379a00000000000000000000000000000000000000000000000000000000081526004016107fc90613b1d565b60405180910390fd5b6099828154811061083f577f4e487b7100000000000000000000000000000000000000000000000000000000600052603260045260246000fd5b90600052602060002001549050919050565b600260fb541415610897576040517f08c379a000000000000000000000000000000000000000000000000000000000815260040161088e90613b5d565b60405180910390fd5b600260fb819055506108a7611292565b73ffffffffffffffffffffffffffffffffffffffff166108c5610c4d565b73ffffffffffffffffffffffffffffffffffffffff161461091b576040517f08c379a000000000000000000000000000000000000000000000000000000000815260040161091290613a9d565b60405180910390fd5b600061092861012d611698565b905033813060405160200161093f93929190613729565b604051602081830303815290604052805190602001208314610996576040517f08c379a000000000000000000000000000000000000000000000000000000000815260040161098d9061387d565b60405180910390fd5b61012e60009054906101000a900473ffffffffffffffffffffffffffffffffffffffff1673ffffffffffffffffffffffffffffffffffffffff166109e26109dc856116a6565b846116d6565b73ffffffffffffffffffffffffffffffffffffffff1614610a38576040517f08c379a0000000000000000000000000000000000000000000000000000000008152600401610a2f9061393d565b60405180910390fd5b610a4361012d6116fd565b610a4d8482611713565b50600160fb81905550505050565b6000806067600084815260200190815260200160002060009054906101000a900473ffffffffffffffffffffffffffffffffffffffff169050600073ffffffffffffffffffffffffffffffffffffffff168173ffffffffffffffffffffffffffffffffffffffff161415610b04576040517f08c379a0000000000000000000000000000000000000000000000000000000008152600401610afb906139fd565b60405180910390fd5b80915050919050565b60008073ffffffffffffffffffffffffffffffffffffffff168273ffffffffffffffffffffffffffffffffffffffff161415610b7e576040517f08c379a0000000000000000000000000000000000000000000000000000000008152600401610b75906139dd565b60405180910390fd5b606860008373ffffffffffffffffffffffffffffffffffffffff1673ffffffffffffffffffffffffffffffffffffffff168152602001908152602001600020549050919050565b610bcd611292565b73ffffffffffffffffffffffffffffffffffffffff16610beb610c4d565b73ffffffffffffffffffffffffffffffffffffffff1614610c41576040517f08c379a0000000000000000000000000000000000000000000000000000000008152600401610c3890613a9d565b60405180910390fd5b610c4b6000611731565b565b600060c960009054906101000a900473ffffffffffffffffffffffffffffffffffffffff16905090565b606060668054610c8690613dcb565b80601f0160208091040260200160405190810160405280929190818152602001828054610cb290613dcb565b8015610cff5780601f10610cd457610100808354040283529160200191610cff565b820191906000526020600020905b815481529060010190602001808311610ce257829003601f168201915b5050505050905090565b610d1b610d14611292565b83836117f7565b5050565b610d30610d2a611292565b83611353565b610d6f576040517f08c379a0000000000000000000000000000000000000000000000000000000008152600401610d6690613afd565b60405180910390fd5b610d7b84848484611964565b50505050565b6000610d8d60016119c0565b90508015610db1576001600060016101000a81548160ff0219169083151502179055505b600073ffffffffffffffffffffffffffffffffffffffff168273ffffffffffffffffffffffffffffffffffffffff161415610e21576040517f08c379a0000000000000000000000000000000000000000000000000000000008152600401610e189061399d565b60405180910390fd5b8161012e60006101000a81548173ffffffffffffffffffffffffffffffffffffffff021916908373ffffffffffffffffffffffffffffffffffffffff160217905550610ed76040518060400160405280600481526020017f4865726f000000000000000000000000000000000000000000000000000000008152506040518060400160405280600481526020017f4845524f00000000000000000000000000000000000000000000000000000000815250611ab0565b610edf611b0d565b610ee7611b5e565b8015610f405760008060016101000a81548160ff0219169083151502179055507f7f26b83ff96e1f2b6a682f133852f6798a09c465da95921460cefb38474024986001604051610f3791906137c0565b60405180910390a15b5050565b6000610f5161012d611698565b905090565b6060610f6182611226565b610fa0576040517f08c379a0000000000000000000000000000000000000000000000000000000008152600401610f9790613abd565b60405180910390fd5b6000610faa611bb7565b90506000815111610fca5760405180602001604052806000815250610ff5565b80610fd484611bce565b604051602001610fe5929190613678565b6040516020818303038152906040525b915050919050565b6000606a60008473ffffffffffffffffffffffffffffffffffffffff1673ffffffffffffffffffffffffffffffffffffffff16815260200190815260200160002060008373ffffffffffffffffffffffffffffffffffffffff1673ffffffffffffffffffffffffffffffffffffffff16815260200190815260200160002060009054906101000a900460ff16905092915050565b611099611292565b73ffffffffffffffffffffffffffffffffffffffff166110b7610c4d565b73ffffffffffffffffffffffffffffffffffffffff161461110d576040517f08c379a000000000000000000000000000000000000000000000000000000000815260040161110490613a9d565b60405180910390fd5b600073ffffffffffffffffffffffffffffffffffffffff168173ffffffffffffffffffffffffffffffffffffffff16141561117d576040517f08c379a00000000000000000000000000000000000000000000000000000000081526004016111749061389d565b60405180910390fd5b61118681611731565b50565b6000808273ffffffffffffffffffffffffffffffffffffffff163b119050919050565b60007f780e9d63000000000000000000000000000000000000000000000000000000007bffffffffffffffffffffffffffffffffffffffffffffffffffffffff1916827bffffffffffffffffffffffffffffffffffffffffffffffffffffffff1916148061121f575061121e82611d7b565b5b9050919050565b60008073ffffffffffffffffffffffffffffffffffffffff166067600084815260200190815260200160002060009054906101000a900473ffffffffffffffffffffffffffffffffffffffff1673ffffffffffffffffffffffffffffffffffffffff1614159050919050565b600033905090565b816069600083815260200190815260200160002060006101000a81548173ffffffffffffffffffffffffffffffffffffffff021916908373ffffffffffffffffffffffffffffffffffffffff160217905550808273ffffffffffffffffffffffffffffffffffffffff1661130d83610a5b565b73ffffffffffffffffffffffffffffffffffffffff167f8c5be1e5ebec7d5bd14f71427d1e84f3dd0314c0f7b2291e5b200ac8c7c3b92560405160405180910390a45050565b600061135e82611226565b61139d576040517f08c379a00000000000000000000000000000000000000000000000000000000081526004016113949061397d565b60405180910390fd5b60006113a883610a5b565b90508073ffffffffffffffffffffffffffffffffffffffff168473ffffffffffffffffffffffffffffffffffffffff1614806113ea57506113e98185610ffd565b5b8061142857508373ffffffffffffffffffffffffffffffffffffffff16611410846104eb565b73ffffffffffffffffffffffffffffffffffffffff16145b91505092915050565b8273ffffffffffffffffffffffffffffffffffffffff1661145182610a5b565b73ffffffffffffffffffffffffffffffffffffffff16146114a7576040517f08c379a000000000000000000000000000000000000000000000000000000000815260040161149e906138bd565b60405180910390fd5b600073ffffffffffffffffffffffffffffffffffffffff168273ffffffffffffffffffffffffffffffffffffffff161415611517576040517f08c379a000000000000000000000000000000000000000000000000000000000815260040161150e906138fd565b60405180910390fd5b611522838383611e5d565b61152d60008261129a565b6001606860008573ffffffffffffffffffffffffffffffffffffffff1673ffffffffffffffffffffffffffffffffffffffff168152602001908152602001600020600082825461157d9190613cb8565b925050819055506001606860008473ffffffffffffffffffffffffffffffffffffffff1673ffffffffffffffffffffffffffffffffffffffff16815260200190815260200160002060008282546115d49190613c31565b92505081905550816067600083815260200190815260200160002060006101000a81548173ffffffffffffffffffffffffffffffffffffffff021916908373ffffffffffffffffffffffffffffffffffffffff160217905550808273ffffffffffffffffffffffffffffffffffffffff168473ffffffffffffffffffffffffffffffffffffffff167fddf252ad1be2c89b69c2b068fc378daa952ba7f163c4a11628f55a4df523b3ef60405160405180910390a4611693838383611e6d565b505050565b600081600001549050919050565b6000816040516020016116b9919061369c565b604051602081830303815290604052805190602001209050919050565b60008060006116e58585611e72565b915091506116f281611ef5565b819250505092915050565b6001816000016000828254019250508190555050565b61172d828260405180602001604052806000815250612246565b5050565b600060c960009054906101000a900473ffffffffffffffffffffffffffffffffffffffff1690508160c960006101000a81548173ffffffffffffffffffffffffffffffffffffffff021916908373ffffffffffffffffffffffffffffffffffffffff1602179055508173ffffffffffffffffffffffffffffffffffffffff168173ffffffffffffffffffffffffffffffffffffffff167f8be0079c531659141344cd1fd0a4f28419497f9722a3daafe3b4186f6b6457e060405160405180910390a35050565b8173ffffffffffffffffffffffffffffffffffffffff168373ffffffffffffffffffffffffffffffffffffffff161415611866576040517f08c379a000000000000000000000000000000000000000000000000000000000815260040161185d9061391d565b60405180910390fd5b80606a60008573ffffffffffffffffffffffffffffffffffffffff1673ffffffffffffffffffffffffffffffffffffffff16815260200190815260200160002060008473ffffffffffffffffffffffffffffffffffffffff1673ffffffffffffffffffffffffffffffffffffffff16815260200190815260200160002060006101000a81548160ff0219169083151502179055508173ffffffffffffffffffffffffffffffffffffffff168373ffffffffffffffffffffffffffffffffffffffff167f17307eab39ab6107e8899845ad3d59bd9653f200f220920489ca2b5937696c31836040516119579190613760565b60405180910390a3505050565b61196f848484611431565b61197b848484846122a1565b6119ba576040517f08c379a00000000000000000000000000000000000000000000000000000000081526004016119b19061385d565b60405180910390fd5b50505050565b60008060019054906101000a900460ff1615611a375760018260ff161480156119ef57506119ed30611189565b155b611a2e576040517f08c379a0000000000000000000000000000000000000000000000000000000008152600401611a2590613a1d565b60405180910390fd5b60009050611aab565b8160ff1660008054906101000a900460ff1660ff1610611a8c576040517f08c379a0000000000000000000000000000000000000000000000000000000008152600401611a8390613a1d565b60405180910390fd5b816000806101000a81548160ff021916908360ff160217905550600190505b919050565b600060019054906101000a900460ff16611aff576040517f08c379a0000000000000000000000000000000000000000000000000000000008152600401611af690613b3d565b60405180910390fd5b611b098282612438565b5050565b600060019054906101000a900460ff16611b5c576040517f08c379a0000000000000000000000000000000000000000000000000000000008152600401611b5390613b3d565b60405180910390fd5b565b600060019054906101000a900460ff16611bad576040517f08c379a0000000000000000000000000000000000000000000000000000000008152600401611ba490613b3d565b60405180910390fd5b611bb56124b9565b565b606060405180602001604052806000815250905090565b60606000821415611c16576040518060400160405280600181526020017f30000000000000000000000000000000000000000000000000000000000000008152509050611d76565b600082905060005b60008214611c48578080611c3190613e2e565b915050600a82611c419190613c87565b9150611c1e565b60008167ffffffffffffffff811115611c8a577f4e487b7100000000000000000000000000000000000000000000000000000000600052604160045260246000fd5b6040519080825280601f01601f191660200182016040528015611cbc5781602001600182028036833780820191505090505b5090505b60008514611d6f57600182611cd59190613cb8565b9150600a85611ce49190613e81565b6030611cf09190613c31565b60f81b818381518110611d2c577f4e487b7100000000000000000000000000000000000000000000000000000000600052603260045260246000fd5b60200101907effffffffffffffffffffffffffffffffffffffffffffffffffffffffffffff1916908160001a905350600a85611d689190613c87565b9450611cc0565b8093505050505b919050565b60007f80ac58cd000000000000000000000000000000000000000000000000000000007bffffffffffffffffffffffffffffffffffffffffffffffffffffffff1916827bffffffffffffffffffffffffffffffffffffffffffffffffffffffff19161480611e4657507f5b5e139f000000000000000000000000000000000000000000000000000000007bffffffffffffffffffffffffffffffffffffffffffffffffffffffff1916827bffffffffffffffffffffffffffffffffffffffffffffffffffffffff1916145b80611e565750611e558261251a565b5b9050919050565b611e68838383612584565b505050565b505050565b600080604183511415611eb45760008060006020860151925060408601519150606086015160001a9050611ea887828585612698565b94509450505050611eee565b604083511415611ee5576000806020850151915060408501519050611eda8683836127a5565b935093505050611eee565b60006002915091505b9250929050565b60006004811115611f2f577f4e487b7100000000000000000000000000000000000000000000000000000000600052602160045260246000fd5b816004811115611f68577f4e487b7100000000000000000000000000000000000000000000000000000000600052602160045260246000fd5b1415611f7357612243565b60016004811115611fad577f4e487b7100000000000000000000000000000000000000000000000000000000600052602160045260246000fd5b816004811115611fe6577f4e487b7100000000000000000000000000000000000000000000000000000000600052602160045260246000fd5b1415612027576040517f08c379a000000000000000000000000000000000000000000000000000000000815260040161201e906137fd565b60405180910390fd5b60026004811115612061577f4e487b7100000000000000000000000000000000000000000000000000000000600052602160045260246000fd5b81600481111561209a577f4e487b7100000000000000000000000000000000000000000000000000000000600052602160045260246000fd5b14156120db576040517f08c379a00000000000000000000000000000000000000000000000000000000081526004016120d29061381d565b60405180910390fd5b60036004811115612115577f4e487b7100000000000000000000000000000000000000000000000000000000600052602160045260246000fd5b81600481111561214e577f4e487b7100000000000000000000000000000000000000000000000000000000600052602160045260246000fd5b141561218f576040517f08c379a00000000000000000000000000000000000000000000000000000000081526004016121869061395d565b60405180910390fd5b6004808111156121c8577f4e487b7100000000000000000000000000000000000000000000000000000000600052602160045260246000fd5b816004811115612201577f4e487b7100000000000000000000000000000000000000000000000000000000600052602160045260246000fd5b1415612242576040517f08c379a000000000000000000000000000000000000000000000000000000000815260040161223990613a3d565b60405180910390fd5b5b50565b6122508383612804565b61225d60008484846122a1565b61229c576040517f08c379a00000000000000000000000000000000000000000000000000000000081526004016122939061385d565b60405180910390fd5b505050565b60006122c28473ffffffffffffffffffffffffffffffffffffffff16611189565b1561242b578373ffffffffffffffffffffffffffffffffffffffff1663150b7a026122eb611292565b8786866040518563ffffffff1660e01b815260040161230d94939291906136dd565b602060405180830381600087803b15801561232757600080fd5b505af192505050801561235857506040513d601f19601f82011682018060405250810190612355919061311b565b60015b6123db573d8060008114612388576040519150601f19603f3d011682016040523d82523d6000602084013e61238d565b606091505b506000815114156123d3576040517f08c379a00000000000000000000000000000000000000000000000000000000081526004016123ca9061385d565b60405180910390fd5b805181602001fd5b63150b7a0260e01b7bffffffffffffffffffffffffffffffffffffffffffffffffffffffff1916817bffffffffffffffffffffffffffffffffffffffffffffffffffffffff191614915050612430565b600190505b949350505050565b600060019054906101000a900460ff16612487576040517f08c379a000000000000000000000000000000000000000000000000000000000815260040161247e90613b3d565b60405180910390fd5b816065908051906020019061249d929190612d5b565b5080606690805190602001906124b4929190612d5b565b505050565b600060019054906101000a900460ff16612508576040517f08c379a00000000000000000000000000000000000000000000000000000000081526004016124ff90613b3d565b60405180910390fd5b612518612513611292565b611731565b565b60007f01ffc9a7000000000000000000000000000000000000000000000000000000007bffffffffffffffffffffffffffffffffffffffffffffffffffffffff1916827bffffffffffffffffffffffffffffffffffffffffffffffffffffffff1916149050919050565b61258f8383836129de565b600073ffffffffffffffffffffffffffffffffffffffff168373ffffffffffffffffffffffffffffffffffffffff1614156125d2576125cd816129e3565b612611565b8173ffffffffffffffffffffffffffffffffffffffff168373ffffffffffffffffffffffffffffffffffffffff16146126105761260f8382612a2c565b5b5b600073ffffffffffffffffffffffffffffffffffffffff168273ffffffffffffffffffffffffffffffffffffffff1614156126545761264f81612b99565b612693565b8273ffffffffffffffffffffffffffffffffffffffff168273ffffffffffffffffffffffffffffffffffffffff1614612692576126918282612cdc565b5b5b505050565b6000807f7fffffffffffffffffffffffffffffff5d576e7357a4501ddfe92f46681b20a08360001c11156126d357600060039150915061279c565b601b8560ff16141580156126eb5750601c8560ff1614155b156126fd57600060049150915061279c565b600060018787878760405160008152602001604052604051612722949392919061377b565b6020604051602081039080840390855afa158015612744573d6000803e3d6000fd5b505050602060405103519050600073ffffffffffffffffffffffffffffffffffffffff168173ffffffffffffffffffffffffffffffffffffffff1614156127935760006001925092505061279c565b80600092509250505b94509492505050565b60008060007f7fffffffffffffffffffffffffffffffffffffffffffffffffffffffffffffff60001b841690506000601b60ff8660001c901c6127e89190613c31565b90506127f687828885612698565b935093505050935093915050565b600073ffffffffffffffffffffffffffffffffffffffff168273ffffffffffffffffffffffffffffffffffffffff161415612874576040517f08c379a000000000000000000000000000000000000000000000000000000000815260040161286b90613a5d565b60405180910390fd5b61287d81611226565b156128bd576040517f08c379a00000000000000000000000000000000000000000000000000000000081526004016128b4906138dd565b60405180910390fd5b6128c960008383611e5d565b6001606860008473ffffffffffffffffffffffffffffffffffffffff1673ffffffffffffffffffffffffffffffffffffffff16815260200190815260200160002060008282546129199190613c31565b92505081905550816067600083815260200190815260200160002060006101000a81548173ffffffffffffffffffffffffffffffffffffffff021916908373ffffffffffffffffffffffffffffffffffffffff160217905550808273ffffffffffffffffffffffffffffffffffffffff16600073ffffffffffffffffffffffffffffffffffffffff167fddf252ad1be2c89b69c2b068fc378daa952ba7f163c4a11628f55a4df523b3ef60405160405180910390a46129da60008383611e6d565b5050565b505050565b609980549050609a600083815260200190815260200160002081905550609981908060018154018082558091505060019003906000526020600020016000909190919091505550565b60006001612a3984610b0d565b612a439190613cb8565b9050600060986000848152602001908152602001600020549050818114612b28576000609760008673ffffffffffffffffffffffffffffffffffffffff1673ffffffffffffffffffffffffffffffffffffffff168152602001908152602001600020600084815260200190815260200160002054905080609760008773ffffffffffffffffffffffffffffffffffffffff1673ffffffffffffffffffffffffffffffffffffffff168152602001908152602001600020600084815260200190815260200160002081905550816098600083815260200190815260200160002081905550505b6098600084815260200190815260200160002060009055609760008573ffffffffffffffffffffffffffffffffffffffff1673ffffffffffffffffffffffffffffffffffffffff16815260200190815260200160002060008381526020019081526020016000206000905550505050565b60006001609980549050612bad9190613cb8565b90506000609a6000848152602001908152602001600020549050600060998381548110612c03577f4e487b7100000000000000000000000000000000000000000000000000000000600052603260045260246000fd5b906000526020600020015490508060998381548110612c4b577f4e487b7100000000000000000000000000000000000000000000000000000000600052603260045260246000fd5b906000526020600020018190555081609a600083815260200190815260200160002081905550609a6000858152602001908152602001600020600090556099805480612cc0577f4e487b7100000000000000000000000000000000000000000000000000000000600052603160045260246000fd5b6001900381819060005260206000200160009055905550505050565b6000612ce783610b0d565b905081609760008573ffffffffffffffffffffffffffffffffffffffff1673ffffffffffffffffffffffffffffffffffffffff168152602001908152602001600020600083815260200190815260200160002081905550806098600084815260200190815260200160002081905550505050565b828054612d6790613dcb565b90600052602060002090601f016020900481019282612d895760008555612dd0565b82601f10612da257805160ff1916838001178555612dd0565b82800160010185558215612dd0579182015b82811115612dcf578251825591602001919060010190612db4565b5b509050612ddd9190612de1565b5090565b5b80821115612dfa576000816000905550600101612de2565b5090565b6000612e11612e0c84613bbd565b613b98565b905082815260208101848484011115612e2957600080fd5b612e34848285613d89565b509392505050565b600081359050612e4b816146d0565b92915050565b600081359050612e60816146e7565b92915050565b600081359050612e75816146fe565b92915050565b600081359050612e8a81614715565b92915050565b600081519050612e9f81614715565b92915050565b600082601f830112612eb657600080fd5b8135612ec6848260208601612dfe565b91505092915050565b600081359050612ede8161472c565b92915050565b600060208284031215612ef657600080fd5b6000612f0484828501612e3c565b91505092915050565b60008060408385031215612f2057600080fd5b6000612f2e85828601612e3c565b9250506020612f3f85828601612e3c565b9150509250929050565b600080600060608486031215612f5e57600080fd5b6000612f6c86828701612e3c565b9350506020612f7d86828701612e3c565b9250506040612f8e86828701612ecf565b9150509250925092565b60008060008060808587031215612fae57600080fd5b6000612fbc87828801612e3c565b9450506020612fcd87828801612e3c565b9350506040612fde87828801612ecf565b925050606085013567ffffffffffffffff811115612ffb57600080fd5b61300787828801612ea5565b91505092959194509250565b6000806040838503121561302657600080fd5b600061303485828601612e3c565b925050602061304585828601612e51565b9150509250929050565b60008060006060848603121561306457600080fd5b600061307286828701612e3c565b935050602061308386828701612e66565b925050604084013567ffffffffffffffff8111156130a057600080fd5b6130ac86828701612ea5565b9150509250925092565b600080604083850312156130c957600080fd5b60006130d785828601612e3c565b92505060206130e885828601612ecf565b9150509250929050565b60006020828403121561310457600080fd5b600061311284828501612e7b565b91505092915050565b60006020828403121561312d57600080fd5b600061313b84828501612e90565b91505092915050565b60006020828403121561315657600080fd5b600061316484828501612ecf565b91505092915050565b61317681613cec565b82525050565b61318581613cfe565b82525050565b61319481613d0a565b82525050565b6131ab6131a682613d0a565b613e77565b82525050565b60006131bc82613bee565b6131c68185613c04565b93506131d6818560208601613d98565b6131df81613f6e565b840191505092915050565b6131f381613d77565b82525050565b600061320482613bf9565b61320e8185613c15565b935061321e818560208601613d98565b61322781613f6e565b840191505092915050565b600061323d82613bf9565b6132478185613c26565b9350613257818560208601613d98565b80840191505092915050565b6000613270601883613c15565b915061327b82613f7f565b602082019050919050565b6000613293601f83613c15565b915061329e82613fa8565b602082019050919050565b60006132b6601c83613c26565b91506132c182613fd1565b601c82019050919050565b60006132d9602b83613c15565b91506132e482613ffa565b604082019050919050565b60006132fc603283613c15565b915061330782614049565b604082019050919050565b600061331f600c83613c15565b915061332a82614098565b602082019050919050565b6000613342602683613c15565b915061334d826140c1565b604082019050919050565b6000613365602583613c15565b915061337082614110565b604082019050919050565b6000613388601c83613c15565b91506133938261415f565b602082019050919050565b60006133ab602483613c15565b91506133b682614188565b604082019050919050565b60006133ce601983613c15565b91506133d9826141d7565b602082019050919050565b60006133f1601183613c15565b91506133fc82614200565b602082019050919050565b6000613414602283613c15565b915061341f82614229565b604082019050919050565b6000613437602c83613c15565b915061344282614278565b604082019050919050565b600061345a601e83613c15565b9150613465826142c7565b602082019050919050565b600061347d603883613c15565b9150613488826142f0565b604082019050919050565b60006134a0602a83613c15565b91506134ab8261433f565b604082019050919050565b60006134c3602983613c15565b91506134ce8261438e565b604082019050919050565b60006134e6602e83613c15565b91506134f1826143dd565b604082019050919050565b6000613509602283613c15565b91506135148261442c565b604082019050919050565b600061352c602083613c15565b91506135378261447b565b602082019050919050565b600061354f602c83613c15565b915061355a826144a4565b604082019050919050565b6000613572602083613c15565b915061357d826144f3565b602082019050919050565b6000613595602f83613c15565b91506135a08261451c565b604082019050919050565b60006135b8602183613c15565b91506135c38261456b565b604082019050919050565b60006135db603183613c15565b91506135e6826145ba565b604082019050919050565b60006135fe602c83613c15565b915061360982614609565b604082019050919050565b6000613621602b83613c15565b915061362c82614658565b604082019050919050565b6000613644601f83613c15565b915061364f826146a7565b602082019050919050565b61366381613d60565b82525050565b61367281613d6a565b82525050565b60006136848285613232565b91506136908284613232565b91508190509392505050565b60006136a7826132a9565b91506136b3828461319a565b60208201915081905092915050565b60006020820190506136d7600083018461316d565b92915050565b60006080820190506136f2600083018761316d565b6136ff602083018661316d565b61370c604083018561365a565b818103606083015261371e81846131b1565b905095945050505050565b600060608201905061373e600083018661316d565b61374b602083018561365a565b613758604083018461316d565b949350505050565b6000602082019050613775600083018461317c565b92915050565b6000608082019050613790600083018761318b565b61379d6020830186613669565b6137aa604083018561318b565b6137b7606083018461318b565b95945050505050565b60006020820190506137d560008301846131ea565b92915050565b600060208201905081810360008301526137f581846131f9565b905092915050565b6000602082019050818103600083015261381681613263565b9050919050565b6000602082019050818103600083015261383681613286565b9050919050565b60006020820190508181036000830152613856816132cc565b9050919050565b60006020820190508181036000830152613876816132ef565b9050919050565b6000602082019050818103600083015261389681613312565b9050919050565b600060208201905081810360008301526138b681613335565b9050919050565b600060208201905081810360008301526138d681613358565b9050919050565b600060208201905081810360008301526138f68161337b565b9050919050565b600060208201905081810360008301526139168161339e565b9050919050565b60006020820190508181036000830152613936816133c1565b9050919050565b60006020820190508181036000830152613956816133e4565b9050919050565b6000602082019050818103600083015261397681613407565b9050919050565b600060208201905081810360008301526139968161342a565b9050919050565b600060208201905081810360008301526139b68161344d565b9050919050565b600060208201905081810360008301526139d681613470565b9050919050565b600060208201905081810360008301526139f681613493565b9050919050565b60006020820190508181036000830152613a16816134b6565b9050919050565b60006020820190508181036000830152613a36816134d9565b9050919050565b60006020820190508181036000830152613a56816134fc565b9050919050565b60006020820190508181036000830152613a768161351f565b9050919050565b60006020820190508181036000830152613a9681613542565b9050919050565b60006020820190508181036000830152613ab681613565565b9050919050565b60006020820190508181036000830152613ad681613588565b9050919050565b60006020820190508181036000830152613af6816135ab565b9050919050565b60006020820190508181036000830152613b16816135ce565b9050919050565b60006020820190508181036000830152613b36816135f1565b9050919050565b60006020820190508181036000830152613b5681613614565b9050919050565b60006020820190508181036000830152613b7681613637565b9050919050565b6000602082019050613b92600083018461365a565b92915050565b6000613ba2613bb3565b9050613bae8282613dfd565b919050565b6000604051905090565b600067ffffffffffffffff821115613bd857613bd7613f3f565b5b613be182613f6e565b9050602081019050919050565b600081519050919050565b600081519050919050565b600082825260208201905092915050565b600082825260208201905092915050565b600081905092915050565b6000613c3c82613d60565b9150613c4783613d60565b9250827fffffffffffffffffffffffffffffffffffffffffffffffffffffffffffffffff03821115613c7c57613c7b613eb2565b5b828201905092915050565b6000613c9282613d60565b9150613c9d83613d60565b925082613cad57613cac613ee1565b5b828204905092915050565b6000613cc382613d60565b9150613cce83613d60565b925082821015613ce157613ce0613eb2565b5b828203905092915050565b6000613cf782613d40565b9050919050565b60008115159050919050565b6000819050919050565b60007fffffffff0000000000000000000000000000000000000000000000000000000082169050919050565b600073ffffffffffffffffffffffffffffffffffffffff82169050919050565b6000819050919050565b600060ff82169050919050565b6000613d8282613d6a565b9050919050565b82818337600083830152505050565b60005b83811015613db6578082015181840152602081019050613d9b565b83811115613dc5576000848401525b50505050565b60006002820490506001821680613de357607f821691505b60208210811415613df757613df6613f10565b5b50919050565b613e0682613f6e565b810181811067ffffffffffffffff82111715613e2557613e24613f3f565b5b80604052505050565b6000613e3982613d60565b91507fffffffffffffffffffffffffffffffffffffffffffffffffffffffffffffffff821415613e6c57613e6b613eb2565b5b600182019050919050565b6000819050919050565b6000613e8c82613d60565b9150613e9783613d60565b925082613ea757613ea6613ee1565b5b828206905092915050565b7f4e487b7100000000000000000000000000000000000000000000000000000000600052601160045260246000fd5b7f4e487b7100000000000000000000000000000000000000000000000000000000600052601260045260246000fd5b7f4e487b7100000000000000000000000000000000000000000000000000000000600052602260045260246000fd5b7f4e487b7100000000000000000000000000000000000000000000000000000000600052604160045260246000fd5b6000601f19601f8301169050919050565b7f45434453413a20696e76616c6964207369676e61747572650000000000000000600082015250565b7f45434453413a20696e76616c6964207369676e6174757265206c656e67746800600082015250565b7f19457468657265756d205369676e6564204d6573736167653a0a333200000000600082015250565b7f455243373231456e756d657261626c653a206f776e657220696e646578206f7560008201527f74206f6620626f756e6473000000000000000000000000000000000000000000602082015250565b7f4552433732313a207472616e7366657220746f206e6f6e20455243373231526560008201527f63656976657220696d706c656d656e7465720000000000000000000000000000602082015250565b7f496e76616c696420686173680000000000000000000000000000000000000000600082015250565b7f4f776e61626c653a206e6577206f776e657220697320746865207a65726f206160008201527f6464726573730000000000000000000000000000000000000000000000000000602082015250565b7f4552433732313a207472616e736665722066726f6d20696e636f72726563742060008201527f6f776e6572000000000000000000000000000000000000000000000000000000602082015250565b7f4552433732313a20746f6b656e20616c7265616479206d696e74656400000000600082015250565b7f4552433732313a207472616e7366657220746f20746865207a65726f2061646460008201527f7265737300000000000000000000000000000000000000000000000000000000602082015250565b7f4552433732313a20617070726f766520746f2063616c6c657200000000000000600082015250565b7f496e76616c6964207369676e6174757265000000000000000000000000000000600082015250565b7f45434453413a20696e76616c6964207369676e6174757265202773272076616c60008201527f7565000000000000000000000000000000000000000000000000000000000000602082015250565b7f4552433732313a206f70657261746f7220717565727920666f72206e6f6e657860008201527f697374656e7420746f6b656e0000000000000000000000000000000000000000602082015250565b7f446566656e64657220616464726573732063616e2774206265207a65726f0000600082015250565b7f4552433732313a20617070726f76652063616c6c6572206973206e6f74206f7760008201527f6e6572206e6f7220617070726f76656420666f7220616c6c0000000000000000602082015250565b7f4552433732313a2062616c616e636520717565727920666f7220746865207a6560008201527f726f206164647265737300000000000000000000000000000000000000000000602082015250565b7f4552433732313a206f776e657220717565727920666f72206e6f6e657869737460008201527f656e7420746f6b656e0000000000000000000000000000000000000000000000602082015250565b7f496e697469616c697a61626c653a20636f6e747261637420697320616c72656160008201527f647920696e697469616c697a6564000000000000000000000000000000000000602082015250565b7f45434453413a20696e76616c6964207369676e6174757265202776272076616c60008201527f7565000000000000000000000000000000000000000000000000000000000000602082015250565b7f4552433732313a206d696e7420746f20746865207a65726f2061646472657373600082015250565b7f4552433732313a20617070726f76656420717565727920666f72206e6f6e657860008201527f697374656e7420746f6b656e0000000000000000000000000000000000000000602082015250565b7f4f776e61626c653a2063616c6c6572206973206e6f7420746865206f776e6572600082015250565b7f4552433732314d657461646174613a2055524920717565727920666f72206e6f60008201527f6e6578697374656e7420746f6b656e0000000000000000000000000000000000602082015250565b7f4552433732313a20617070726f76616c20746f2063757272656e74206f776e6560008201527f7200000000000000000000000000000000000000000000000000000000000000602082015250565b7f4552433732313a207472616e736665722063616c6c6572206973206e6f74206f60008201527f776e6572206e6f7220617070726f766564000000000000000000000000000000602082015250565b7f455243373231456e756d657261626c653a20676c6f62616c20696e646578206f60008201527f7574206f6620626f756e64730000000000000000000000000000000000000000602082015250565b7f496e697469616c697a61626c653a20636f6e7472616374206973206e6f74206960008201527f6e697469616c697a696e67000000000000000000000000000000000000000000602082015250565b7f5265656e7472616e637947756172643a207265656e7472616e742063616c6c00600082015250565b6146d981613cec565b81146146e457600080fd5b50565b6146f081613cfe565b81146146fb57600080fd5b50565b61470781613d0a565b811461471257600080fd5b50565b61471e81613d14565b811461472957600080fd5b50565b61473581613d60565b811461474057600080fd5b5056fea2646970667358221220fb7250c25b2a2fdc23679443608012b996c855cf7f99b0b360974500005cdc5364736f6c63430008040033",
  "linkReferences": {},
  "deployedLinkReferences": {}
}